:100000000C943E000C9450000C9450000C94500042
:100010000C9465010C9450000C94CB020C9450008D
:100020000C9450000C9450000C9450000C94500010
:100030000C9450000C9450000C9450000C94500000
:100040000C9450000C9450000C9450000C945000F0
:100050000C9450003C012101240127012A012D01AB
:100060003001330136013901620148014B014E0173
:100070005101540157015A015D015F0111241FBE56
:10008000CFE5D4E0DEBFCDBF20E0A0E6B0E001C008
:100090001D92A537B207E1F70E9421030C94A40337
:1000A0000C9400008EB58D7F8EBD8EB585608EBDA3
:1000B00089B7806189BF8DE38BBD89E08ABD1DBC96
:1000C0001CBC8EB588608EBD81E090E09093660088
:1000D0008093650010926A00109269009093680006
:1000E000809367000895A89A089596B321E030E0C0
:1000F00002C0220F331F8A95E2F7292381E009F419
:1001000080E0089582E00E94750090E09093640082
:10011000809363000197B9F580916100909162002E
:10012000892B89F580916B0090916C00833091054B
:100130002CF010926C0010926B0008C08130910579
:1001400061F08230910581F0892BA1F4A99A85B3E1
:10015000837F85BB8FEF8CBF0DC0AA9A85B3857F47
:1001600085BB8AEA8CBF06C0AB9A85B3897F85BB05
:1001700086E88CBF80916B0090916C000196909303
:100180006C0080936B008091630090916400909369
:100190006200809361000895BB9AC3980E94820018
:1001A0000895BB98C39A0895C39AA99A85B3837F8B
:1001B00085BB8FEF8CBF089583B7806283BF83B701
:1001C0008F7E83BF83B7806483BF83B7886083BF1C
:1001D00083B7826083BF83B78A7F83BF0895C39A42
:1001E000A89A0E94DC00089583B7806283BF83B71A
:1001F0008F7E83BF83B78F7B83BF83B7877F83BFA8
:1002000083B7826083BF83B78A7F83BF08951092CC
:1002100066001092650010926800109267000E94BC
:1002200073000E94CC000E94F4000E948200089596
:1002300090E08A30910510F5FC01E65DFF4F0C94CB
:100240008F0389EF8BBB089584EA8BBB089580EB05
:100250008BBB089589E98BBB089582E98BBB089518
:1002600082E88BBB089588EF8BBB089580E88BBB39
:10027000089580E98BBB089580EC8BBB089590E0D6
:100280008A30910508F5FC01EC5CFF4F0C948F035C
:1002900089E78BBB089584E28BBB089580E38BBB19
:1002A000089589E18BBB089582E18BBB089582E0BC
:1002B0008BBB089588E78BBB08951BBA089580E136
:1002C0008BBB089580E48BBB08951F920F920FB6ED
:1002D0000F9211242F933F934F935F936F937F93CC
:1002E0008F939F93AF93BF93EF93FF9380916F0092
:1002F000811108C0AF9885B3806785BB809173007A
:100300000E94180180916F00813041F4AE9885B34E
:10031000806B85BB809172000E94180180916F00F4
:100320008230C1F480916D0090916E00CC9774F191
:10033000AD9885B3806D85BB80917100811104C03B
:1003400090917000992319F00E943F0103C080E052
:100350000E94180180916F00833071F480916D00CC
:1003600090916E00CC977CF0AC9885B3806E85BB85
:10037000809170000E94180180916F008F5F8093C0
:100380006F00843040F010926F0005C080916F00C4
:100390008F5F80936F00FF91EF91BF91AF919F911D
:1003A0008F917F916F915F914F913F912F910F901E
:1003B0000FBE0F901F9018958FEF8ABB8BBB84BB2D
:1003C00085B5866085BD85B58E7F85BD89B780641E
:1003D00089BF14BC78940895AC019C01A9E8B8E8E1
:1003E0000E949503FC01F695E795F295E295EF7072
:1003F000EF27FF70EF272CE32E9FC0012F9F900D5A
:100400001124FA01E81BF90B9F01ADECBCEC0E9432
:1004100095039695879596958795969587959C01D2
:10042000220F331F880F991F880F991F880F991F5C
:10043000820F931F9F01281B390B209373009F018C
:100440000E9495039695879596958795969587959D
:10045000809372009A01A9E8B8E80E949503FC0114
:10046000F695E795F295E295EF70EF27FF70EF278D
:100470009F01ADECBCEC0E949503969587959695EF
:100480008795969587959C01220F331F880F991F9A
:10049000880F991F880F991F820F931FE81BF90B74
:1004A000E09371009A0136952795369527953695F4
:1004B0002795AFE4BBE10E949503969587959695A5
:1004C0008795969587958093700008958091740024
:1004D00080FF07C083993EC082993CC0109274008F
:1004E000089583991BC0829B19C08091740081601C
:1004F0008093740080916D0090916E0005969093AA
:100500006E0080936D0010926A0010926900813134
:100510009E4024F010926E0010926D0082991AC0D5
:10052000839B18C0809174008160809374008091D7
:100530006D0090916E00059790936E0080936D0012
:1005400010926A0010926900992324F410926E00B0
:1005500010926D000895C398A8980E94F4000E941C
:1005600082000E94660208950E94AB0210926E0003
:1005700010926D00109266001092650008950E941E
:10058000B4021092600008950E94B40210926800B4
:100590001092670008951F920F920FB60F921124C8
:1005A0002F933F934F935F936F937F938F939F937B
:1005B000AF93BF93EF93FF93809165009091660096
:1005C0000197D9F480916D0090916E00181619066C
:1005D000A4F4019790936E0080936D00892B19F01D
:1005E0000E94EF0002C00E94AB0280916D009091CA
:1005F0006E00892B11F40E94C402FF91EF91BF910C
:10060000AF919F918F917F916F915F914F913F91AA
:100610002F910F900FBE0F901F901895BB9A87B324
:10062000887F87BB88B3876088BB08950E94DC0100
:100630000E94B4020E94D1000E94D4000E940E03C6
:1006400008950E9416030EE110E0D2E0C1E080910F
:100650006D0090916E000E94EC01809160008130ED
:1006600059F018F08230D1F157C00E94AB02B09916
:10067000EECFC0936000EBCFB0992BC0B09BFECF04
:1006800080916D0090916E00009759F410936E0068
:1006900000936D0010926800109267000E94520053
:1006A00018C020916700309168002115310519F4B8
:1006B0000E9452000EC02130310559F44E9690939D
:1006C0006E0080936D0010926800109267000E9487
:1006D0005200B199BCCFD0936000B9CFB19917C087
:1006E000B19BFECF80916D0090916E00892B49F0F7
:1006F0008091670090916800019719F40E940701AA
:1007000006C00E94BF021092680010926700B09964
:100710009ECFC09360009BCF1092600098CFEE0FE9
:10072000FF1F0590F491E02D0994A29FB001B39FA3
:10073000C001A39F700D811D1124911DB29F700DEA
:0C074000811D1124911D0895F894FFCF35
:04000003000000A455
:00000001FF
